:020000040800F2
:1000000000000220653300080133000803330008B4
:10001000053300080733000809330008000000001A
:100020000000000000000000000000000B3300088A
:100030000D330008000000000F33000811330008E2
:10004000B5330008B5330008B5330008B5330008F0
:10005000B5330008B5330008B5330008B5330008E0
:10006000B5330008B5330008B5330008B5330008D0
:10007000B5330008B5330008B5330008B5330008C0
:10008000B5330008B5330008B5330008B5330008B0
:10009000B5330008B5330008B5330008B5330008A0
:1000A000B5330008B5330008B5330008B533000890
:1000B000B5330008B5330008B5330008B533000880
:1000C000B5330008B5330008B5330008B533000870
:1000D000B5330008B5330008B5330008B533000860
:1000E000B5330008B5330008B5330008B533000850
:1000F000B5330008B5330008B5330008B533000840
:10010000B5330008B5330008B5330008B53300082F
:10011000B5330008B5330008B5330008B53300081F
:10012000B5330008B5330008B5330008B53300080F
:10013000B53300080000000000000000B5330008DF
:10014000B5330008B5330008B5330008B5330008EF
:10015000B5330008B5330008B5330008B5330008DF
:10016000B5330008B5330008B5330008B5330008CF
:10017000B5330008B5330008B533000800000000AF
:1001800000000000B533000800000000000000007F
:10019000B53300080000000000000000B53300087F
:1001A000000000000000000000000000B53300085F
:1001B000B5330008B5330008B5330008B53300087F
:0401C000B53300084B
:1001D00010B5054C237833B9044B13B10448AFF381
:1001E00000800123237010BD700200200000000079
:1001F000A45A000808B5034B1BB103490348AFF3E9
:10020000008008BD0000000074020020A45A00080D
:1002100081F0004102E000BF83F0004330B54FEAB7
:1002200041044FEA430594EA050F08BF90EA020F24
:100230001FBF54EA000C55EA020C7FEA645C7FEAB7
:10024000655C00F0E2804FEA5454D4EB5555B8BFDA
:100250006D420CDD2C4480EA020281EA030382EA4B
:10026000000083EA010180EA020281EA0303362DDD
:1002700088BF30BD11F0004F4FEA01314FF4801CB0
:100280004CEA113102D0404261EB410113F0004FC2
:100290004FEA03334CEA133302D0524263EB430379
:1002A00094EA050F00F0A780A4F10104D5F1200E17
:1002B0000DDB02FA0EFC22FA05F2801841F1000172
:1002C00003FA0EF2801843FA05F359410EE0A5F146
:1002D00020050EF1200E012A03FA0EFC28BF4CF077
:1002E000020C43FA05F3C01851EBE37101F000452D
:1002F00007D54FF0000EDCF1000C7EEB00006EEB3A
:100300000101B1F5801F1BD3B1F5001F0CD34908C3
:100310005FEA30004FEA3C0C04F101044FEA44521A
:1003200012F5800F80F09A80BCF1004F08BF5FEAA1
:10033000500C50F1000041EB045141EA050130BD81
:100340005FEA4C0C404141EB010111F4801FA4F124
:100350000104E9D191F0000F04BF01460020B1FA79
:1003600081F308BF2033A3F10B03B3F120020CDAB1
:100370000C3208DD02F1140CC2F10C0201FA0CF08F
:1003800021FA02F10CE002F11402D8BFC2F1200CF4
:1003900001FA02F120FA0CFCDCBF41EA0C019040AA
:1003A000E41AA2BF01EB0451294330BD6FEA0404F3
:1003B0001F3C1CDA0C340EDC04F11404C4F12002DE
:1003C00020FA04F001FA02F340EA030021FA04F3F0
:1003D00045EA030130BDC4F10C04C4F1200220FA47
:1003E00002F001FA04F340EA0300294630BD21FA85
:1003F00004F0294630BD94F0000F83F4801306BF4B
:1004000081F480110134013D4EE77FEA645C18BF3E
:100410007FEA655C29D094EA050F08BF90EA020FD5
:1004200005D054EA000C04BF1946104630BD91EACD
:10043000030F1EBF0021002030BD5FEA545C05D1D0
:100440004000494128BF41F0004130BD14F580040F
:100450003CBF01F5801130BD01F0004545F0FE4183
:1004600041F470014FF0000030BD7FEA645C1ABFB8
:10047000194610467FEA655C1CBF0B46024650EAEF
:10048000013406BF52EA033591EA030F41F400211B
:1004900030BD00BF90F0000F04BF0021704730B5A1
:1004A0004FF4806404F132044FF000054FF0000176
:1004B00050E700BF90F0000F04BF0021704730B537
:1004C0004FF4806404F1320410F0004548BF40420C
:1004D0004FF000013EE700BF42004FEAE2014FEA61
:1004E00031014FEA02701FBF12F07F4393F07F4F3C
:1004F00081F06051704732F07F4208BF704793F03F
:100500007F4F04BF41F40021704730B54FF4607451
:1005100001F0004521F000411CE700BF50EA010254
:1005200008BF704730B54FF000050AE050EA0102FD
:1005300008BF704730B511F0004502D5404261EB6D
:1005400041014FF4806404F132045FEA915C3FF4AE
:10055000D8AE4FF003025FEADC0C18BF03325FEA4B
:10056000DC0C18BF033202EBDC02C2F1200300FAFC
:1005700003FC20FA02F001FA03FE40EA0E0021FA21
:1005800002F11444BDE600BF4FEA4102B2F1E0437C
:1005900024BFB3F5001CDCF1FE5C0DD901F0004C6A
:1005A0004FEAC0024CEA5070B2F1004F40EB8300BA
:1005B00008BF20F00100704711F0804F21D113F1E6
:1005C0003872BCBF01F00040704741F480114FEA1F
:1005D0005252C2F11802C2F1200C10FA0CF320FAA8
:1005E00002F018BF40F001004FEAC1234FEAD323C5
:1005F00003FA0CFC40EA0C0023FA02F34FEA43032F
:10060000CCE77FEA625307D150EA01331EBF4FF0B7
:10061000FE4040F44000704701F0004040F0FE40D2
:1006200040F40000704700BF53B94AB9002908BF21
:1006300000281CBF4FF0FF314FF0FF3000F072B9BF
:10064000ADF1080C6DE904CE00F006F8DDF804E029
:10065000DDE9022304B070472DE9F047089E044607
:100660008846002B4BD18A42154667D9B2FA82F2EE
:100670004AB1C2F1200701FA02F320FA07F79540C8
:1006800047EA030894404FEA154E230CB8FBFEF7E7
:100690001FFA85FC0EFB178843EA084307FB0CF1A1
:1006A000994209D9EB1807F1FF3080F01B8199427C
:1006B00040F21881023F2B445B1AA4B2B3FBFEF058
:1006C0000EFB103344EA034400FB0CFCA44509D99B
:1006D0002C1900F1FF3380F00781A44540F204811A
:1006E00002382C4440EA0740A4EB0C0400271EB15A
:1006F000D4400023C6E900433946BDE8F0878B4269
:1007000009D9002E00F0EB800027C6E90001384629
:100710003946BDE8F087B3FA83F7002F47D18B4203
:1007200002D3824200F2FA80841A61EB03030120B3
:100730009846002EE0D0C6E90048DDE702B9FFDEAA
:10074000B2FA82F2002A40F08F80491B4FEA154E20
:100750001FFA85F80127B1FBFEFC230C0EFB1C11D0
:1007600043EA014308FB0CF1994207D9EB180CF15D
:10077000FF3002D2994200F2CD808446591AA3B2CA
:10078000B1FBFEF00EFB101443EA044408FB00F832
:10079000A04507D92C1900F1FF3302D2A04500F281
:1007A000B6801846A4EB080440EA0C409FE7C7F166
:1007B000200CBB4022FA0CFE4EEA030E01FA07F4AD
:1007C00020FA0CF521FA0CF34FEA1E482543B3FB3F
:1007D000F8F92C0C08FB19331FFA8EFA44EA03438C
:1007E00009FB0AF49C4202FA07F200FA07F10BD95E
:1007F0001EEB030309F1FF3080F087809C4240F23A
:100800008480A9F1020973441B1BADB2B3FBF8F05D
:1008100008FB103345EA034400FB0AFAA24508D955
:100820001EEB040400F1FF336BD2A24569D90238F4
:10083000744440EA0940A0FB0289A4EB0A044C4539
:10084000C2464B4654D351D0002E69D0B1EB0A05B5
:1008500064EB030404FA0CFCFD40FC404CEA050583
:10086000C6E90054002747E7C2F1200320FA03F746
:10087000954001FA02F021FA03F34FEA154E38438E
:10088000010CB3FBFEF71FFA85F80EFB173341EAA4
:10089000034107FB08F38B4204FA02F407D96918F5
:1008A00007F1FF3C2FD28B422DD9023F2944CB1AAE
:1008B00081B2B3FBFEF00EFB103341EA034100FBB3
:1008C00008F38B4207D9691800F1FF3C17D28B421D
:1008D00015D902382944C91A40EA07473BE7374689
:1008E000304609E70746E7E61846FBE64145ABD246
:1008F000B8EB020A69EB0E0201381346A4E7604622
:10090000E9E7184695E76746D1E781467CE7023874
:100910002C4447E7ACF1020C2B442FE7384608E79C
:100920003746E9E6704700BF034613F8012B002A5B
:10093000FBD1181A013870470000000000000000C9
:1009400001F0FF01102A2BDB10F0070F08D010F880
:10095000013B013A8B422DD010F0070F42B3F6D184
:10096000F0B441EA012141EA014122F007047FF09D
:1009700000070023F0E80256083C85EA010586EAF4
:10098000010685FA47F5A3FA87F586FA47F6A5FA30
:1009900087F68EB9EED1F0BC01F0FF0102F007023C
:1009A00032B110F8013B013A83EA010313B1F8D1E7
:1009B0000020704701387047002D06BF35460338C8
:1009C000073815F0010F07D1013015F4807F02BF01
:1009D000013015F4C03F0130F0BC0138704700BF52
:1009E00010B504460E4B18784FF47A73B3FBF0F34E
:1009F0000C4A1068B0FBF3F000F09CF868B90F2CBB
:100A000001D901200AE0002221464FF0FF3000F01A
:100A10005DF8034B5C60002000E0012010BD00BFCA
:100A2000000000209800002008B50B4B1A6842F423
:100A300000721A601A6842F480621A601A6842F4FE
:100A400080721A60032000F02FF80020FFF7C8FF23
:100A500002F098FB002008BD003C0240034A1168E8
:100A6000034B1B780B441360704700BFA0020020AB
:100A700000000020014B1868704700BFA002002052
:100A800038B50446FFF7F6FF0546B4F1FF3F02D044
:100A9000044B1B781C44FFF7EDFF401BA042FAD328
:100AA00038BD00BF00000020074AD36823F4E0638C
:100AB0001B041B0C000200F4E060184340F0BF6010
:100AC00040F40030D060704700ED00E030B4174BC8
:100AD000DB68C3F30223C3F10704042C28BF0424FA
:100AE0001D1D062D18D9033B4FF0FF3505FA04F400
:100AF00021EA0401994005FA03F322EA03031943AA
:100B000000280BDB0901C9B200F1604000F561402B
:100B100080F8001330BC70470023E5E700F00F00B9
:100B20000901C9B2024B1954F4E700BF00ED00E01F
:100B300014ED00E00138B0F1807F0AD2064B586016
:100B4000064AF02182F823100020986007221A60DC
:100B500070470120704700BF10E000E000ED00E0AA
:100B600000230F2B00F2D180F0B482B039E00622CE
:100B700000E00022B2403A430234644E46F824209A
:100B8000634A1468EA4302EA04064F6817F4803F98
:100B900001D045EA04065E4C2660646802EA040659
:100BA0004F6817F4003F01D045EA0406584C6660D0
:100BB000A46802EA04064F6817F4801F01D045EAD2
:100BC0000406534CA660E46822404E6816F4001FE9
:100BD00001D045EA04024E4CE26001330F2B00F2D3
:100BE000918001229A400C6804EA0205AA42F4D1DD
:100BF0004C68022C01D0122C10D1DE08083650F8B7
:100C000026C003F00704A7000F24BC402CEA040C04
:100C10000C69BC4044EA0C0440F8264004685F00BC
:100C20000326BE40F64306EA040C4C6804F00304B5
:100C3000BC4044EA0C0404604C6804F1FF3CBCF185
:100C4000010F03D9112C01D0122C10D1846806EAAF
:100C5000040CCC68BC4044EA0C048460446824EA78
:100C600002024C68C4F300149C4014434460C26800
:100C700016408A68BA403243C2604A6812F0805F08
:100C8000ABD000220192234A546C44F48044546453
:100C9000526C02F480420192019A9C08A61C1B4AE5
:100CA00052F8267003F0030296000F22B24027EAA2
:100CB0000207194A90423FF45CAF02F5806290420D
:100CC00016D002F58062904214D002F58062904204
:100CD00012D002F58062904210D002F580629042FC
:100CE0000ED002F5806290423FF441AF072241E707
:100CF00001223FE702223DE703223BE7042239E7D6
:100D0000052237E702B0F0BC704770470038014059
:100D1000003C0140003802400000024003691942D3
:100D200001D1002070470120704712B90904816188
:100D30007047816170470000002800F09D8070B509
:100D400004464F4B1B6803F00F038B4209D2CBB212
:100D50004B4A1370136803F00F038B4201D001203C
:100D600070BD236813F0020F17D013F0040F04D0E6
:100D7000444A936843F4E0539360236813F0080FE8
:100D800004D0404A936843F4604393603D4A9368BB
:100D900023F0F003A068034393600D46236813F02B
:100DA000010F32D06368012B21D09A1E012A25D968
:100DB000344A126812F0020F60D032498A6822F079
:100DC000030213438B60FFF755FE06462D4B9B68CD
:100DD00003F00C036268B3EB820F16D0FFF74AFEF4
:100DE000801B41F288339842F0D90320B8E7254AA6
:100DF000126812F4003FE0D10120B1E7214A1268E5
:100E000012F0007FD9D10120AAE71D4B1B6803F027
:100E10000F03AB4209D9EAB2194B1A701B6803F0F1
:100E20000F03AB4201D001209AE7236813F0040FAF
:100E300006D0144A936823F4E053E1680B439360AF
:100E4000236813F0080F07D00E4A936823F4604319
:100E5000216943EAC103936000F040F8094B9B68A5
:100E6000C3F30313084AD35CD840084B1860002032
:100E7000FFF7B6FD002073E70120704701206FE700
:100E8000003C024000380240BC5A00089800002094
:100E9000014B1868704700BF9800002008B5FFF7A5
:100EA000F7FF044B9B68C3F38223034AD35CD8400B
:100EB00008BD00BF00380240CC5A000808B5FFF753
:100EC000E7FF044B9B68C3F34233034AD35CD8402B
:100ED00008BD00BF00380240CC5A00082DE9F04B95
:100EE0005C4B9B6803F00C03082B07D00C2B5BD0EA
:100EF000042B00F0AD805848BDE8F08B554B5A6884
:100F000002F03F025B6813F4800F2AD0514B5B68FC
:100F1000C3F388131E4600275C010025E41A65EB25
:100F20000705A90141EA9461A001001B61EB0501DD
:100F3000CB0043EA5073C400A01943EB07014B02F6
:100F400043EAD0534402204619460023FFF76CFBC6
:100F5000404B5B68C3F3014301335B00B0FBF3F02C
:100F6000CAE73C4B5B68C3F388131E4600275C014D
:100F70000025E41A65EB0705A90141EA9461A00187
:100F8000001B61EB0501CB0043EA5073C400A019BC
:100F900043EB07018B0243EA905384022046194633
:100FA0000023FFF741FBD3E72A4B5A6802F03F02C8
:100FB0005B6813F4800F28D0264B5B68C3F388135B
:100FC0001E4600275C010025E41A65EB0705A90110
:100FD00041EA9461A001001B61EB0501CB0043EAEB
:100FE0005073C400A01943EB07014B0243EAD053EE
:100FF0004402204619460023FFF716FB154B5B6899
:10100000C3F30273B0FBF3F076E7124B5B68C3F3F4
:1010100088131E4600275C010025E41A65EB0705CE
:10102000A90141EA9461A001001B61EB0501CB001D
:1010300043EA5073C400A01943EB07018B0243EA53
:1010400090538402204619460023FFF7EDFAD5E7B6
:10105000024851E7003802400024F40000127A00F0
:1010600070B582B00446036813F0010F41D0A64B5F
:101070009B6803F00C03042B32D0A34B9B6803F056
:101080000C03082B27D0A04B9B6803F00C030C2B00
:1010900059D06368B3F5803F5BD0B3F5A02F5ED025
:1010A000994B1A6822F480321A601A6822F480225E
:1010B0001A606368002B5CD0FFF7DCFC0546924B9E
:1010C0001B6813F4003F14D1FFF7D4FC401B6428C5
:1010D000F5D903209DE18C4B5B6813F4800FD2D0CF
:1010E000894B1B6813F4003F03D06368002B00F0AA
:1010F0008D81236813F0020F67D0834B9B6813F038
:101100000C0F4AD0804B9B6803F00C03082B3FD098
:101110007D4B9B6803F00C030C2B48D0E368002B3D
:1011200074D07A4B01221A60FFF7A4FC0546764B77
:101130001B6813F0020F60D1FFF79CFC401B0228D4
:10114000F5D9032065E1704B5B6813F4800FA0D0E4
:10115000C6E76D4A136843F480331360A9E76A4B0E
:101160001A6842F480221A601A6842F480321A60C7
:101170009FE7FFF77FFC0546634B1B6813F4003FB6
:10118000B7D0FFF777FC401B6428F5D9032040E176
:101190005D4B5B6813F4800FBAD15B4B1B6813F097
:1011A000020F0AD0E368012B07D0012031E1564B32
:1011B0005B6813F4800FB1D1EFE7534A136823F053
:1011C000F803216943EAC1031360236813F0080F91
:1011D00040D0636963B34E4B01221A60FFF74AFCAB
:1011E0000546494B5B6F13F0020F33D1FFF742FC0A
:1011F000401B0228F5D903200BE1434A136823F072
:10120000F803216943EAC1031360DEE73F4B002284
:101210001A60FFF72FFC05463B4B1B6813F0020FCB
:10122000D3D0FFF727FC401B0228F5D90320F0E0BC
:10123000374B00221A60FFF71DFC0546324B5B6FEF
:1012400013F0020F06D0FFF715FC401B0228F5D95A
:101250000320DEE0236813F0040F79D02A4B1B6CC7
:1012600013F0805F33D100230193274B1A6C42F0B7
:1012700080521A641B6C03F080530193019B01257B
:10128000244B1B6813F4807F23D0A368012B34D038
:10129000052B41D01C4B1A6F22F001021A671A6FFE
:1012A00022F004021A67A368002B3FD0FFF7E2FB8D
:1012B0000646154B1B6F13F0020F48D1FFF7DAFB00
:1012C000801B41F288339842F3D90320A1E0002526
:1012D000D6E7104A136843F480731360FFF7CAFB24
:1012E00006460C4B1B6813F4807FCED1FFF7C2FB80
:1012F000801B0228F5D903208BE0034A136F43F0CB
:1013000001031367CFE700BF0038024000004742E7
:10131000800E474200700040404B1A6F42F00402BA
:101320001A671A6F42F001021A67BCE7FFF7A2FBC7
:1013300006463A4B1B6F13F0020F08D0FFF79AFBDB
:10134000801B41F288339842F3D9032061E0E5B96C
:10135000A369002B5CD0314A926802F00C02082A83
:1013600059D0022B17D02E4B00221A60FFF782FBB8
:1013700004462A4B1B6813F0007F45D0FFF77AFB29
:10138000001B0228F5D9032043E0244A136C23F004
:1013900080531364DCE7224B00221A60FFF76AFBDC
:1013A00005461E4B1B6813F0007F06D0FFF762FB5B
:1013B000401B0228F5D903202BE0E369226A13437E
:1013C000626A43EA8213A26A5208013A43EA02437C
:1013D000E26A43EA0263226B43EA02730F4A5360F4
:1013E0000F4B01221A60FFF745FB04460B4B1B68AD
:1013F00013F0007F06D1FFF73DFB001B0228F5D953
:10140000032006E0002004E0002002E0012000E0CC
:10141000002002B070BD0120FBE700BF0038024091
:1014200060004742F8B505460F4616461C463BE0AD
:101430002CB1FFF71FFB069BC01AA04234D32A68C9
:10144000536823F0E00353606B68B3F5827F0BD0E1
:10145000AB6AB3F5005F14D0012385F85130002347
:1014600085F85030032027E0AB68B3F5004F02D079
:10147000B3F5806FECD12A68136823F04003136042
:10148000E6E72A68136823F400531B041B0C13605F
:101490002A68136843F400531360DDE70123B34265
:1014A00009D0B4F1FF3FC3D12B689B6837EA03032F
:1014B000F4D00023F3E70020F8BD10B582B0044655
:1014C00000920B4600228021FFF7ACFF034610B9C3
:1014D000184602B010BD636D43F02003636503231B
:1014E000F6E700283BD010B504460023836290F84D
:1014F0005130002B2ED0022384F85130226813681B
:1015000023F0400313606368A2681343E268134347
:101510002269134362691343A26902F40072134300
:10152000E2691343226A1343A16A22680B431360E2
:10153000638B03F00403616A22680B4353602268E3
:10154000D36923F40063D36100206065012384F82C
:10155000513010BD80F8503001F034FECBE701204F
:1015600070472DE9F04385B099460C9D90F85030B6
:10157000012B00F0108104460F461646012380F827
:101580005030FFF777FA804694F85130DBB262684A
:10159000012B15D0B2F5827F0AD00223012284F8F4
:1015A0005120002284F85020184605B0BDE8F08391
:1015B000A268002A40F0E780042B01D00223EDE767
:1015C000002F00F0E280002E00F0E180B9F1000F62
:1015D00000F0DF8094F85130DBB2012B2BD00023D8
:1015E0006365A663A4F83E90A4F83C902763A4F832
:1015F0003690A4F834902364636423681A6812F068
:10160000400F03D11A6842F040021A60E368B3F554
:10161000006F14D063681BB1E38E9BB2012B07D11E
:10162000236817F8012B1A73E38E013B9BB2E38604
:101630004FF0010961E0052384F85130CFE763687A
:101640001BB1E38E9BB2012B07D1236837F8022B25
:10165000DA60E38E013B9BB2E3864FF0010913E0B1
:10166000E38F9BB26BB123689A6812F0010F08D028
:10167000DB6826F8023BE38F013B9BB2E3874FF028
:101680000109B5F1FF3F1CD1E38E9BB21BB9E38F7B
:101690009BB2002B55D0B9F1000FE1D0E38E9BB285
:1016A000002BDDD023689A6812F0020FD8D037F8EB
:1016B000022BDA60E38E013B9BB2E3864FF0000918
:1016C000CEE7FFF7D7F9A0EB0800A842DCD303234D
:1016D00064E7E38F9BB26BB123689A6812F0010F45
:1016E00008D0DB683370E38F013B9BB2E3870136A0
:1016F0004FF00109B5F1FF3F1BD1E38E9BB213B947
:10170000E38F9BB2EBB1B9F1000FE2D0E38E9BB255
:10171000002BDED023689A6812F0020FD9D03A78F5
:101720001A73E38E013B9BB2E38601374FF0000949
:10173000CFE7FFF79FF9A0EB0800A842DDD3032312
:101740002CE7CDF800802B46012202212046FFF72E
:1017500069FE08B1032321E7424629462046FFF7E8
:10176000ACFE034618B120236365012316E7A26887
:10177000002A7FF413AF03922268D1680391926824
:101780000392039A0AE7022308E7012306E70123ED
:1017900004E7012302E7022306E700002DE9F843EE
:1017A000044601680A6922F44052C36813430B617E
:1017B0000168CA6822F4164222F00C0283680069AC
:1017C000034360690343E06903431343CB6021682B
:1017D0004A6922F44072A36913434B61E369B3F58C
:1017E000004F60D02368B84A934200F0148102F59C
:1017F0008062934200F00F81FFF750FB00EB800006
:1018000000EB80006568AD00B0FBF5F5AF4FA7FBBE
:1018100005356D092E01FFF741FB00EB800000EB61
:1018200080006568AD00B0FBF5F9FFF737FB00EB12
:10183000800000EB80006568AD00B0FBF5F5A7FB0C
:1018400005356D094FF0640808FB15952D013235FB
:10185000A7FB05356D0905F0F0053544FFF71EFBC4
:1018600000EB800000EB80006668B600B0FBF6F687
:10187000FFF714FB00EB800000EB800063689B0027
:10188000B0FBF3F0A7FB0030400908FB10684FEAFB
:10189000081808F13208A7FB0837C7F34317236875
:1018A0002F449F600DE12368874A93425BD002F585
:1018B0008062934257D0FFF7F1FA00EB800000EB13
:1018C000800065686D00B0FBF5F5804FA7FB05351E
:1018D0006D092E01FFF7E2FA00EB800000EB8000BB
:1018E00065686D00B0FBF5F9FFF7D8FA00EB8000F2
:1018F00000EB800065686D00B0FBF5F5A7FB0535D2
:101900006D094FF0640808FB1595ED003235A7FB13
:1019100005356D096D0005F4F8753544FFF7BEFA1D
:1019200000EB800000EB800066687600B0FBF6F606
:10193000FFF7B4FA00EB800000EB800063685B0007
:10194000B0FBF3F3A7FB03235B0908FB13684FEA23
:10195000C80808F13208A7FB0837C7F34217236805
:101960002F449F60ADE0FFF7A9FA00EB800000EB89
:10197000800065686D00B0FBF5F5544FA7FB053599
:101980006D092E01FFF79AFA00EB800000EB800052
:1019900065686D00B0FBF5F9FFF790FA00EB800089
:1019A00000EB800065686D00B0FBF5F5A7FB053521
:1019B0006D094FF0640808FB1595ED003235A7FB63
:1019C00005356D096D0005F4F8753544FFF776FAB5
:1019D00000EB800000EB800066687600B0FBF6F656
:1019E000FFF76CFA00EB800000EB800063685B009F
:1019F000B0FBF3F3A7FB03235B0908FB13684FEA73
:101A0000C80808F13208A7FB0837C7F34217236854
:101A10002F449F6055E0FFF751FA00EB800000EB88
:101A200080006568AD00B0FBF5F5284FA7FB0535D4
:101A30006D092E01FFF742FA00EB800000EB8000F9
:101A40006568AD00B0FBF5F9FFF738FA00EB8000F0
:101A500000EB80006568AD00B0FBF5F5A7FB053530
:101A60006D094FF0640808FB15952D013235A7FB71
:101A700005356D0905F0F0053544FFF71FFA00EB59
:101A8000800000EB80006668B600B0FBF6F6FFF75A
:101A900015FA00EB800000EB800063689B00B0FB50
:101AA000F3F0A7FB0030400908FB10684FEA081864
:101AB00008F13208A7FB0837C7F3431723682F4400
:101AC0009F60BDE8F88300BF001001401F85EB5107
:101AD0002DE9F04105460F4616469846069C2B68B0
:101AE0001B6837EA03030CBF01230023B3421DD157
:101AF000B4F1FF3FF3D02CB1FEF7BCFFA0EB080020
:101B0000A042ECD92A68D36823F4D073D3602A6842
:101B1000536923F001035361202385F8393085F898
:101B20003A30002385F83830032000E00020BDE87B
:101B3000F08158B310B5044690F839300BB3242324
:101B400084F839302268D36823F40053D3602046E8
:101B5000FFF724FE2268136923F49043136122687F
:101B6000536923F02A0353612268D36843F4005376
:101B7000D3600020E063202384F8393084F83A30C1
:101B800010BD80F8383001F055FBD8E701207047D0
:101B90002DE9F04182B01E4690F83930DBB2202B9F
:101BA00055D104460D469046002955D0002A55D0FF
:101BB00090F83830012B53D0012380F838300023BF
:101BC000C363212380F83930FEF754FF0746A4F899
:101BD0002480A4F8268010E000963B460022802155
:101BE0002046FFF775FF00283CD12B882268C3F3FD
:101BF000080353602369C3B90235E38C9BB2B3B1C8
:101C0000E38C013B9BB2E384A368B3F5805FE3D030
:101C100000963B46002280212046FFF759FF18BB63
:101C20002A7823685A600135E7E70135E5E7009631
:101C30003B46002240212046FFF74AFF0346A8B951
:101C4000202284F83920002284F8382000E0022382
:101C5000184602B0BDE8F0810123F9E70123F7E758
:101C60000223F5E70323F3E70323F1E70323EFE779
:101C70002DE9F04182B01E4690F83A30DBB2202BBD
:101C80005AD104460D469046002959D0002A59D011
:101C900090F83830012B57D0012380F838300023DA
:101CA000C363222380F83A30FEF7E4FE0746A4F827
:101CB0002C80A4F82E801DE000963B4600222021B7
:101CC0002046FFF705FF002840D1236933B9236878
:101CD0005B68C3F3080325F8023B0BE023685B68ED
:101CE000DBB225F8013B05E023685B6803F07F0366
:101CF0002B700135E38D9BB2BBB1E38D013B9BB2F1
:101D0000E385A368B3F5805FD6D000963B460022FA
:101D100020212046FFF7DCFED0B92369002BE3D158
:101D200023685B682B700135E4E7202384F83A30A0
:101D3000002084F8380000E0022002B0BDE8F08105
:101D40000120FAE70120F8E70220F6E70320F4E794
:101D50000320F2E700B587B08DF80F0006AA002334
:101D600002F8013D0A23009301230DF10F010448FD
:101D7000FFF7F7FB9DF8170007B05DF804FB00BF05
:101D8000F802002070B504460E460A4D00221021CC
:101D90002846FEF7CAFF600000F07E00FFF7DAFF7A
:101DA0003046FFF7D7FF012210212846FEF7BDFF7E
:101DB00070BD00BF0000024038B504460B4D002244
:101DC00010212846FEF7B1FF600000F07E0040F0D1
:101DD0008000FFF7BFFF0020FFF7BCFF0446012291
:101DE00010212846FEF7A1FF204638BD0000024022
:101DF00038B505460C46FFF7DFFF40EA0401C9B2DB
:101E00002846FFF7BFFF38BD38B504460D46FFF73B
:101E1000D3FF41B221EA0501C9B22046FFF7B2FF64
:101E200038BD2DE9F04706468A46914698460C286B
:101E300016D00E2817D000252F4647F0800102202B
:101E4000FFF7A0FF80210420FFF7DEFF80210A209A
:101E5000FFF7CEFF00210120FFF794FF00240CE0E4
:101E600031257727E9E710251227E6E71AF804104D
:101E70000920FFF787FF0134A4B21FFA89F3A342B8
:101E8000F4D831460120FFF77DFF0C2E32D04FF4FD
:101E9000FA640420FFF790FF8146013CA4B20CB124
:101EA0000542F6D080210D20FFF7AEFF002C3AD07E
:101EB0000620FFF781FF10F01B0F38D107EA090752
:101EC00017F0010F1BD100250C2E2DD10A20FFF792
:101ED00073FF06460C20FFF76FFF10F0070010D0CD
:101EE000731E00EBC300089B188076B1102E0DD92D
:101EF00010260BE080210D20FFF77AFFC7E70125B0
:101F0000E2E7F300089A1380EFE70126002406E0D9
:101F10000920FFF751FF08F804000134A4B2B3B25E
:101F2000A342F5D800E002252846BDE8F087022547
:101F3000FAE730B585B005460C4607210D20FFF7BE
:101F400021FF25700DF10E03009323460122214647
:101F50000C20FFF766FF38B90346BDF80E20102AA3
:101F600004D1184605B030BD0223FAE70223F8E792
:101F700030B585B0044600210D20FFF703FF932301
:101F80002370202363700DF10E0300932346022279
:101F900021460C20FFF745FF0546226821790B48B2
:101FA00002F002FA65B92A462B4604E0E15C4A4099
:101FB000D2B20133DBB2032BF8D9E35C934202D1F6
:101FC000284605B030BD0225FAE700BFE05A0008F8
:101FD00010B5044601462620FFF7ABFF034608B1C3
:101FE000184610BD2046FFF7C3FF0346F8E7F8B5D3
:101FF00006460D46174604210520FFF705FF802100
:102000000A20FFF7F5FE002405E0315D0920FFF707
:10201000B9FE0134E4B2AC42F7D303210120FFF74B
:10202000B1FEFF240520FFF7C7FE631E13F0FF0477
:1020300002D010F0040FF5D02220FFF7BDFE38705B
:102040002120FFF7B9FE7870F8BD00B587B0932363
:102050008DF80C3070238DF80D30002308E09A1CA9
:10206000C15C0DF1180C624402F80C1C0133DBB2A8
:10207000042BF4D90DF11302072103A8FFF7B7FFD2
:102080000DF11603009303AB092219460C20FFF74C
:10209000C8FE034630B9BDF81620182A03D19DF8B2
:1020A0000C3000E00023184607B05DF804FB10B5C3
:1020B00086B08DF808008DF80910002108E0881C12
:1020C000545C0DF1180C604400F8104C0131C9B299
:1020D0000529F4D9002208E002F10801985C06AC59
:1020E000214401F8100C0132D2B2032AF4D90DF1C7
:1020F0001603009302AB0C2219460E20FFF791FE47
:10210000044638B90820FFF757FE10F0080F02D137
:10211000022400E00224204606B010BD10B584B0B1
:102120000C4630230B7048708A1C02212046FFF7B2
:102130005EFF0DF10E0300932346042221460C207E
:10214000FFF76FFE38B90346BDF80E20902A04D180
:10215000184604B010BD0223FAE70223F8E710B5D1
:1021600088B00C46A0238DF80C308DF80D000DF1D1
:102170000E02022103A8FFF73AFF0DF11E030093A0
:1021800003AB042219460C20FFF74BFE88BB034625
:10219000BDF81E20042A2ED19DF80C2002F00F025B
:1021A0000A2A08D0022327E0E15C08AA1A4402F8B0
:1021B000141C0133DBB20F2BF6D907AA102103A898
:1021C000FFF715FF0DF11E03009303AB1222194612
:1021D0000C20FFF726FE034688B9BDF81E20042A0E
:1021E0000FD19DF80C2002F00F020A2A04D002231E
:1021F00002E0022300E00223184608B010BD0223CB
:10220000FAE70223F8E7000030B587B00D46C12396
:102210008DF810308DF811000DF11202022104A882
:10222000FFF7E5FE0DF10E03009304AB04221946FF
:102230000C20FFF7F6FD0446264802F03DF91CBBD2
:10224000BDF80E30042B09D002249DF8101022484E
:1022500002F0AAF8D4B1204607B030BD9DF81010A6
:1022600001F00F030A2B01D00224EEE7012C07D066
:1022700014B1022CE9D0EDE7184802F095F8E9E72F
:10228000174802F091F8E5E70224DEE72B6806AC78
:1022900044F8083D05AA04212046FFF7A8FE0DF1E9
:1022A0000E0300932346062221460C20FFF7B9FDBA
:1022B000044658B9BDF80E30042B09D19DF81030F2
:1022C00003F00F030A2BC6D00224C4E70224C2E79E
:1022D0000224C0E7B85B0008405C0008C85B000847
:1022E000005C000800B585B0B0238DF808308DF88B
:1022F00009000DF10A02022102A8FFF778FE0DF194
:102300000E03009302AB042219460C20FFF789FD4F
:1023100060B90346BDF80E20042A09D19DF80820B3
:1023200002F00F020A2A04D0022302E0022300E096
:102330000223184605B05DF804FB08B50F21012003
:10234000FFF720FD08BD08B51420FFF735FD10F09C
:10235000030F00D008BD03211420FFF749FDF9E762
:1023600008B5FFF7EAFF0D212A20FFF70BFD3E21FC
:102370002B20FFF707FD1E212D20FFF703FD052170
:102380002C20FFF7FFFC70212620FFF7FBFC4021EB
:102390001520FFF7F7FC3D211120FFF7F3FCFFF7B5
:1023A000D2FF08BD10B5002406E0054B1A5D21469A
:1023B000044801F0F9FF01340F2CF6DD10BD00BF19
:1023C000A4020020785C000810B5044605E0064B26
:1023D000195D064801F0E8FF01340F2CF7DD0448D1
:1023E00002F06AF810BD00BFA4020020945C00084F
:1023F0009C5C000810B483B02D4A937983F00100EF
:102400009DF8001060F30001107A60F34101D27969
:1024100082F0010464F382018DF800105C0884F0FE
:1024200001049DF8011064F30001C0F3400464F35B
:102430004101540884F0010464F382018DF8011015
:102440009C0884F001049DF8021064F30001C0F3BD
:10245000800464F34101940884F0010464F3820170
:102460008DF80210DB0883F001019DF8033061F361
:102470000003C0F3C00060F34103D20882F0010200
:1024800062F382038DF80330009B0020DAB262F31E
:102490000700C3F3072262F30F20C3F3074262F37E
:1024A00017401B0E63F31F6003B05DF8044B7047C9
:1024B000A402002010B582B02E4801F075FF2E4B0B
:1024C0001B68986801F0A4FD002405E02B4B195D02
:1024D0002B4801F069FF0134052CF7D90A2001F0DF
:1024E0007BFF284801F060FF002408E0C4F10302EC
:1024F000224B13449979224801F056FF0134032CF2
:10250000F4D90A2001F068FF1F4801F04DFF1A4B73
:102510001B68986801F07CFD002406E0174B2344FB
:10252000997A174801F040FF0134052CF6D90A20AA
:1025300001F052FFFFF75EFF019000F00F0113481A
:1025400001F032FF9DF8051001F00F01104801F075
:102550002BFF9DF8061001F00F010E4801F024FF3B
:102560009DF8071001F00F010B4801F01DFF02B0AC
:1025700010BD00BFA05C0008A0000020A402002045
:10258000B05C0008B85C0008CC5C0008DC5C0008AB
:10259000FC5C00081C5D00083C5D000808B53720A5
:1025A000FFF70AFC0146024801F0FEFE08BD00BF2D
:1025B0005C5D000808B5FFF7D3FE06492620FFF74B
:1025C000B8FC0028F7D1034B1978034801F0ECFE62
:1025D00008BD00BFA40200205C5D000808B5FFF73D
:1025E000BFFE0348FFF7F4FC0028F8D108BD00BF88
:1025F000A402002008B5FFF7B3FE0E48FFF7E8FC81
:102600000028F8D10B48FFF720FD082800D008BDAE
:10261000084B094A00216020FFF749FD0028F6D148
:102620000449FFF77BFD054801F0BEFE0520FFF7DA
:10263000CBFEECE7A402002008000020685D000843
:1026400010B582B002AC002304F8013D164801F039
:10265000ABFE164B1B68986801F0DAFC2146144863
:1026600001F042FFFFF77CFE1248FFF7B1FC0028A3
:10267000F8D11048FFF7E9FC082801D002B010BDDE
:102680000C4B0D4A9DF807106020FFF710FD002845
:10269000F4D1084C21469DF80700FFF73FFD214685
:1026A000064801F081FEE9E7785D0008A0000020FF
:1026B000AC5D0008A402002008000020B05D000806
:1026C00010B50446FFF74CFE0C48FFF781FC0028CC
:1026D000F8D10A48FFF7B9FC082801D0074810BD17
:1026E000064B074A21466020FFF7E1FC0028F5D1A0
:1026F00002492046FFF712FDF0E700BFA4020020C8
:102700000800002038B50446FFF72AFE1248FFF7FC
:102710005FFC0028F8D11048FFF797FC082802D08A
:102720000D4B186838BD0C4B0C4A21466020FFF752
:10273000BEFC0028F4D1084D29462046FFF7EEFCE8
:102740002A68AB689A4203D12A7BAB7B9A42E7D0D6
:10275000034801F0B1FEE3E7A402002008000020D6
:10276000C05D000810B582B002AC002304F8013D42
:102770001D4801F019FE1D4B1B68986801F048FCCC
:1027800021461B4801F0B0FEFFF7EAFD1948FFF7AC
:102790001FFC0028F8D11748FFF757FC082801D084
:1027A00002B010BD134B144A9DF807106020FFF7CC
:1027B0007EFC0028F4D10F4C21469DF80700FFF75E
:1027C000ADFC2268A3689A4203D1227BA37B9A4284
:1027D00003D00A4801F070FEE2E7FFF7E3FD21684D
:1027E000074801F0E1FDDBE7785D0008A00000206C
:1027F000AC5D0008A402002008000020C05D0008B5
:10280000E05D000810B500F0FC040334E4B221469A
:102810000E4801F0C9FDFFF7A3FD0D48FFF7D8FBF7
:102820000028F8D10A48FFF710FC0828F3D1084B1C
:10283000084A21466020FFF73AFC0028EBD1044902
:102840002046FFF76BFC0028E5D110BDF45D0008C1
:10285000A40200200800002000B583B000238DF8FA
:102860000730104801F0A0FD0F4B1B68986801F07D
:10287000CFFB0DF107010D4801F036FE9DF8070072
:102880003F28EED8FFF7BEFF0A2001F0A5FD9DF816
:1028900007108908064801F087FDFFF70BFE03B01B
:1028A0005DF804FB145E0008A0000020AC5D000889
:1028B000545E000800B587B000238DF817302B4810
:1028C00001F072FD2A4B1B68986801F0A1FB0DF125
:1028D0001701284801F008FE9DF81720531EDBB2AF
:1028E0003E2BECD802F00302032AE8D0224801F084
:1028F0005BFD1F4B1B68986801F08AFB0023019366
:1029000002930393049301A91A4801F0EDFD019B82
:10291000DA43029203939DF817208DF81020D343D9
:10292000DBB28DF811308DF812208DF81330FFF7DF
:1029300017FD1248FFF74CFB0028F8D10F48FFF7AE
:1029400084FB0828F3D10D4B0D4A9DF81710602029
:10295000FFF7ADFB0028EAD101A99DF81700FFF7AA
:10296000FEFB0028E3D107B05DF804FB745E0008AD
:10297000A0000020AC5D00089C5E0008A4020020BE
:102980000800002000B587B000238DF817302548D7
:1029900001F00AFD244B1B68986801F039FB0DF12A
:1029A0001701224801F0A0FD9DF81720531EDBB24D
:1029B0003E2BECD802F00302032AE8D01C4801F0B9
:1029C000F3FC194B1B68986801F022FB01A9194818
:1029D00001F08AFD01A8FDF7A7FF0E28EED800231D
:1029E0008DF81330FFF7BCFC1348FFF7F1FA00280D
:1029F000F8D11148FFF729FB0828F3D10E4B0F4AF5
:102A00009DF817106020FFF752FB0028EAD101A9BA
:102A10009DF81700FFF7A3FB0028E3D107B05DF88E
:102A200004FB00BF745E0008A0000020AC5D00083D
:102A3000C45E0008F45E0008A40200200800002024
:102A400010B582B002AC002304F8013D194801F032
:102A5000ABFC194B1B68986801F0DAFA214617485D
:102A600001F042FD9DF80700FFF7CCFEFFF778FC70
:102A70001348FFF7ADFA0028F8D11148FFF7E5FA3F
:102A8000082801D002B010BD0D4B0E4A9DF807106A
:102A90006020FFF70CFB0028F4D1094902230B60EA
:102AA0009DF80700FFF7B0FB9DF80700FFF71AFC41
:102AB000E8E700BFF85E0008A0000020AC5D000859
:102AC000A40200200800002010B582B002AC002350
:102AD00004F8013D194801F067FC194B1B68986820
:102AE00001F096FA2146174801F0FEFC9DF8070018
:102AF000FFF788FEFFF734FC1348FFF769FA002858
:102B0000F8D11148FFF7A1FA082801D002B010BD92
:102B10000D4B0E4A9DF807106020FFF7C8FA0028F9
:102B2000F4D1094902230B609DF80700FFF76CFB05
:102B30009DF80700FFF7D6FBE8E700BF345F000809
:102B4000A0000020AC5D0008A402002008000020C6
:102B500010B582B002AC002304F8013D154801F025
:102B600023FC154B1B68986801F052FA2146134864
:102B700001F0BAFC9DF80700FFF744FEFFF7F0FBF9
:102B80000F48FFF725FA0028F8D10D48FFF75DFA46
:102B9000082801D002B010BD094B0A4A9DF8071061
:102BA0006020FFF784FA0028F4D19DF80700FFF7B2
:102BB00099FBEFE7F85E0008A0000020AC5D00087C
:102BC000A40200200800002082B00190084B1B687E
:102BD000084AA2FB0323DB0D019A02FB03F30193D6
:102BE000019B5A1E0192002BFAD102B0704700BF20
:102BF00098000020B5FA9BEE10B5114C002201217F
:102C00002046FEF792F84FF41670FFF7DDFF012221
:102C100011462046FEF789F86420FFF7D5FF012111
:102C20002046FEF77BF828B14FF4FA70FFF7CCFF8F
:102C3000002010BD4FF4FA70FFF7C6FF0120F8E73F
:102C400000000240F8B5074600F00103012500240A
:102C500016E0174E002201213046FEF766F85A2092
:102C6000FFF7B2FF012211463046FEF75EF803205F
:102C7000FFF7AAFF6D00EDB207EA05030134E4B2E5
:102C8000072C13D8002BE4D0094E00220121304636
:102C9000FEF74BF80320FFF797FF0122114630465D
:102CA000FEF743F85A20FFF78FFFE3E7F8BD00BFB8
:102CB0000000024010B50446FFF7C4FF442C00D0CA
:102CC00010BD01210248FEF729F80028F9D0F7E7E6
:102CD0000000024008B5FFF7B5FF08BD10B5104C65
:102CE000002201212046FEF720F80220FFF76CFFAA
:102CF000012211462046FEF718F80A20FFF764FF6C
:102D000001212046FEF70AF820B13A20FFF75CFFC8
:102D1000012010BD3A20FFF757FF0020F9E700BF60
:102D20000000024038B500252C4606E0FFF7D6FF2C
:102D3000A0400543EDB20134E4B2072CF6D9284691
:102D400038BD000070B52DED028BFFF7EBFF064696
:102D5000FFF7E8FF46EA0026B6B29FED0F8A01258D
:102D60006FF0030403E06D00ADB2013464B2062CD1
:102D70000CDC3542F7D007EE904AF8EEE70AB0EEE9
:102D8000000A00F019FB38EE008AECE7B0EE480AC2
:102D9000BDEC028B70BD00BF0000000008B5FFF75E
:102DA0002BFFCC20FFF796FF4420FFF783FF642022
:102DB000FFF70AFFFFF720FFCC20FFF78BFFBE20B5
:102DC000FFF778FFFFF7BEFFFDEEC07A17EE901A0F
:102DD000054BC3ED007A054801F0E6FA4FF47A702E
:102DE000FDF74EFE08BD00BF8C0200206C5F00089E
:102DF00010B5FFF701FFCC20FFF76CFF4420FFF771
:102E000059FF6420FFF7E0FEFFF7F6FECC20FFF746
:102E100061FFBE20FFF74EFFFFF794FF054CBDEEAC
:102E2000C00A84ED000A4FF47A70FDF729FE20688D
:102E300010BD00BF8C02002030B58BB0002405947B
:102E400006940794089409940194224B1A6B42F05B
:102E500004021A631A6B02F004020192019A0294AE
:102E60001A6B42F080021A631A6B02F0800202921F
:102E7000029A03941A6B42F001021A631A6B02F071
:102E800001020392039A04941A6B42F002021A633D
:102E90001B6B03F002030493049B0F4D2246112188
:102EA0002846FDF742FF4FF4005305930B4B069362
:102EB000079405A90A48FDF753FE11230593012342
:102EC00006930794089405A92846FDF749FE0BB020
:102ED00030BD00BF00380240000002400000211059
:102EE0000008024008B50848084B03604FF4165329
:102EF000436000238360C36003610C2242618361ED
:102F0000C361FEF716FE08BDB402002000100140A8
:102F100008B50848084B03604FF4E13343600023D1
:102F20008360C36003610C2242618361C361FEF769
:102F300000FE08BD500300200044004008B50B48C7
:102F40000B4B03604FF48273436000238360C360C4
:102F5000036143614FF400728261C36103624362A3
:102F600083620A23C362FEF7BCFA08BDF8020020A0
:102F70000030014010B5084C642306222146074862
:102F8000FEF776FE2378002BF5D02146044801F0A9
:102F90000BFA0023237010BD90030020B402002020
:102FA000805F000810B50B4C07E00B4801F0FCF9FE
:102FB00008340A4A13680133136021680029F4D1E8
:102FC000074801F0F1F9074B1B68986801F020F8F9
:102FD00010BD00BF10000020F45E00089002002029
:102FE000885F0008A000002038B50120FFF768FBCB
:102FF00001460E4801F0D8F90220FFF783FB044692
:1030000001460B4801F0D0F9FFF7F2FE05460146F4
:10301000084801F0C9F9AC4204D02146064801F045
:10302000C3F938BD054801F047FAFAE7A05F000888
:10303000B85F0008E45F00080C600008306000081A
:1030400010B594B03422002107A801F0FDF8002447
:10305000029403940494059406940094174B1A6CFC
:1030600042F080521A641B6C03F080530093009B63
:103070000194134A136823F4404343F480431360DC
:10308000136803F440430193019B02230793012338
:103090000A9310230B930D9407A8FDF7E1FF0F236C
:1030A0000293039404944FF48053059306942146AD
:1030B00002A8FDF741FE14B010BD00BF0038024069
:1030C0000070004000B583B0FDF7AEFCFFF7B8FF1D
:1030D000FFF7B2FEFFF706FFFFF71AFFFFF72EFF1D
:1030E000FFF73EF94FF0FF330193FFF75BFF01E07D
:1030F000FFF758FF01A9094801F0F6F9019B002BE1
:10310000F6DB074A12689342F2D2064A02EBC30387
:103110005B68002BECD09847ECE700BFAC5D000883
:10312000900200201000002008B54FF47A7392B28C
:103130000248FEF72DFD002008BD00BF500300200F
:1031400038B50C460D4D4FF6FF7301222846FEF7A9
:103150008FFD0A23012221462846FEF719FD237818
:103160000D2B01D0012038BD0A2301220449284635
:10317000FEF70EFD0A232370F4E700BF5003002082
:10318000645D000800B583B0002100910C4B5A6CBF
:1031900042F480425A645A6C02F480420092009ACF
:1031A00001911A6C42F080521A641B6C03F0805338
:1031B0000193019B0720FDF777FC03B05DF804FB4A
:1031C0000038024000B589B00023039304930593AF
:1031D000069307930268154B9A4202D009B05DF836
:1031E00004FB0021019103F584335A6C42F48052B0
:1031F0005A645A6C02F480520192019A02911A6B3D
:1032000042F001021A631B6B03F001030293029B5D
:10321000E0230393022304930323069305230793D8
:1032200003A90348FDF79CFCD8E700BF003001402C
:103230000000024000B58BB000230593069307936E
:103240000893099303682A4A934205D0294A934276
:1032500028D00BB05DF804FB00210191264B5A6C7D
:1032600042F010025A645A6C02F010020192019A64
:1032700002911A6B42F001021A631B6B03F0010307
:103280000293029B4FF4C06305930223069301232C
:103290000793032308930723099305A91748FDF70C
:1032A0005FFCD6E700210391134B1A6C42F4003205
:1032B0001A641A6C02F400320392039A04911A6B96
:1032C00042F001021A631B6B03F001030493049B99
:1032D0000C230593022306930123079303230893EA
:1032E0000723099305A90548FDF73AFCB1E700BF9C
:1032F000001001400044004000380240000002403D
:103300007047FEE7FEE7FEE7FEE77047704770474D
:1033100008B5FDF7A3FB08BD0F49D1F8883043F489
:103320007003C1F888300D4B1A6842F001021A6030
:10333000002098601A6822F0847222F480321A60A9
:10334000074A5A601A6822F480221A60D8604FF047
:1033500000638B60704700BF00ED00E00038024062
:1033600010300024DFF834D0002103E00C4B5B5810
:10337000435004310B480C4B42189A42F6D30B4A87
:1033800002E0002342F8043B094B9A42F9D3FFF7CD
:10339000C3FF00F035FFFFF795FE704700000220E5
:1033A0001C64000800000020700200207002002051
:1033B000A0030020FEE700002DE9F0432DED048B73
:1033C000B14D8BB0F0EE408AB0EE608A00F086F925
:1033D00095F90040631CB0EE409A30D0B4EE488AB4
:1033E000F1EE10FA2BD6F4EE688AF1EE10FA67D6F9
:1033F000DFEDA69AF4EE698AF1EE10FA26D1B4EE6A
:10340000698AF1EE10FA40F091800123A04A0093FE
:1034100018EE900A002301920893FDF75DF8CDE9BC
:10342000020118EE100AFDF757F800220023CDE93B
:103430000401CDE90623002C5FD0B7EE009AB0EE70
:10344000490A0BB0BDEC048BBDE8F08300F046FCEC
:103450000446002800F09A80B5EE409AF1EE10FA8A
:10346000EDD1B0EE680A00F039FC0028E7D0B0EEEC
:10347000480A00F033FC0028E1D00423844A00937A
:1034800018EE900A002308930192FDF725F8CDE984
:10349000020118EE100AFDF71FF895F9003000261A
:1034A0000027022BCDE90401CDE9066703D0684669
:1034B00000F00AFC38BB00F0F5FC2223036022E098
:1034C000B5EE408AF1EE10FAB9D10123704A0093AB
:1034D00018EE900A002301920893FCF7FDFFCDE956
:1034E000020118EE100AFCF7F7FF6A4B0022022CCB
:1034F000CDE90401CDE906239FD0684600F0E4FB46
:10350000002800F08480089B1BB100F0CBFC089BD6
:103510000360DDE90601FDF737F809EE100AB0EEA9
:10352000490A0BB0BDEC048BBDE8F083B0EE480A4D
:1035300000F0D4FB002882D0B5EEC08AF1EE10FA7C
:103540007FF57DAF0123524A009318EE900A0023C5
:1035500008930192FCF7C0FFCDE9020118EE100AB2
:10356000FCF7BAFF95F90030CDE90401002B53D0E8
:1035700049490020022BCDE9060151D100F092FC0F
:1035800021230360089B002BC3D0BEE7B0EE680A7E
:1035900000F0A4FB00283FF45FAFB0EE480A00F053
:1035A0009DFB00283FF458AF18EE900AFCF794FFFB
:1035B000804618EE100A8946FCF78EFFB4EE499A51
:1035C000F1EE10FA95F900606ED6F6EE007A03225D
:1035D0002F4B08940092CDE90289CDE904010193B3
:1035E00028EE278A16BB2D4BF5EEC08A4FF06042BD
:1035F000F1EE10FACDE9062324D4684600F064FB0E
:103600000028BFD100F04EFC22230360BAE700F08F
:1036100049FC2123036076E700220023CDE906233D
:10362000684600F051FB0028ACD1A7E71C4BF5EE33
:10363000C08A0022F1EE10FACDE9062313D4022E3F
:10364000E0D0DAE7B0EE480A00F058FBB4EE480AE2
:10365000F1EE10FA14D0134B95F900604FF0604270
:10366000CDE90623EBE7B0EE480A00F047FBB4EEE5
:10367000480AF1EE10FA03D0074B0022CDE90623E9
:1036800095F90060DBE700BF9C000020000000000F
:103690003C6200080000F03F0000F0FFFFFFEF4732
:1036A0000000F07FFFFFEFC701220B4B0894009250
:1036B000CDE90289CDE904010193002EACD0C9EE19
:1036C000A97A17EE900AFCF707FF022ECDE9060152
:1036D0003FF454AFA4E700BF3C6200082DE9F04777
:1036E0002DED028B10EE903A82B033F000468DED56
:1036F000010A14D0DDF8048028F00047B7F1FF4F2D
:1037000007DD5A4802B0BDEC028BBDE8F04700F07F
:10371000EFBAB6F1FF4F09DDB7F17E5FF1D1B7EE39
:10372000000A02B0BDEC028BBDE8F087B8F1000FD3
:1037300010EE904A2ADB4FF00009B6F1FF4F37D068
:10374000B6F17E5F3DD0B4F1804F1AD0019DB4F147
:103750007C5F9A4600EE105A3BD1B8F1000F6CDA4C
:1037600000F0B4FAB7F1FF4F00D0C7BBA7F17E5706
:1037700057EA090368D0B9F1010FD2D1B1EE400A7E
:10378000CFE7DDED017A27EEA70ACAE7B6F1974F3A
:103790001CDAB6F17E5F08DBF215C2F1960246FA3A
:1037A00002F101FA02F2B24253D04FF00009C7E72A
:1037B000B7F17E5FB3D032DD002C23DB00EE103A90
:1037C000AFE7002C32DB9DED010AAAE74FF00209BA
:1037D000B3E700F07BFAB7F1FF4F16D0AFB1B7F106
:1037E0007E5F12D04FEAD873013B59EA030235D00D
:1037F000B6F19A4F42DD1E4A974200F39481002CA5
:10380000C0F297819FED1B0A8BE7002CBCBFF7EE3F
:10381000007A87EE800AB8F1000F82DAA6E7002C62
:10382000F0DA07EE903AB1EE670A7AE79DED017A99
:10383000F7EE007A87EE870A73E702B0BDEC028BE1
:10384000BDE8F04700F03CBA70EE407A87EEA70A78
:1038500067E701F00101C1F1020971E707EE905A33
:1038600077EEE77A87EEA70A5BE700BF845F000880
:10387000F7FF7F3F000000000000804BB7F5000F0E
:1038800080F247815FED047A60EE277A6FF01702CD
:1038900017EE907AEA48F915C7F316077F39874281
:1038A000114447F07E5240F33681E648874240F3A8
:1038B000B3819FEDE55A0131A2F50002F0EE453AE1
:1038C0000020F7EE006A04EE902A74EEA67AB7EEB6
:1038D000007A87EE278A521042F0005202F58022C9
:1038E000024434EEE67ADFEDD98A9FEDD92A9FEDC6
:1038F000D90ADFEDD90A9FEDD91ADFEDD91ADFED2C
:10390000D92A9FEDD93A27EE084A07EE902A24EEED
:10391000046AD64AA6EE282A14EE100A104005EED4
:10392000900AA2EE060AB1EE652A77EEE66AA2EEEA
:10393000277AF0EE607AE0EE067A74EEE64AF0EE70
:10394000476AB0EE417AA7EE867AE2EE246AE7EEA5
:10395000061A66EE886A75EE847A26EE066A67EEC7
:10396000A67AF0EE084AE6EE217AB0EE646AA5EE99
:10397000A56A07EE101A36EE276ADFEDBD1A16EEBD
:10398000101A114006EE101A76EE644AB8EEC77AA5
:10399000E2EE254A77EEE47A67EE847AE6EE267A5E
:1039A000F0EE676AE5EE866A16EE901A114006EEB2
:1039B000901AE2EE066A05EE901A77EEE67A67EE66
:1039C000A27AE5EE837A77EEA37AF0EE676AE5EE07
:1039D000A16A76EE856A76EE876A16EE901A114035
:1039E00006EE901A36EEC77A37EE457AA5EEE17A02
:1039F00077EEC77A24F47F6424F00F0407EE10AA50
:103A000006EE104A67EE877A37EE466A07EE104AEE
:103A1000E6EE267A09F1FF3959EA030326EE877AA2
:103A2000BFEE000A77EE876AB7EE006A16EE901ACC
:103A300014BFB0EE468AB0EE408A002921F0004360
:103A400040F38E80B3F1864F00F3838076D0B3F1DC
:103A50007C5F00F39180002016EE903A23F47F63A0
:103A600023F00F0306EE903A9FED826ADFED825A53
:103A70009FED823ADFED823A9FED822A9FED824AE6
:103A8000DFED824A9FED825A36EEC77AF0EE002AC9
:103A900077EEC77A26EE867AA7EEA57AF7EE005A79
:103AA000F0EE477AA6EE837A27EE076AF0EE471A21
:103AB000E6EEC31AF0EE636AE6EE026A77EEE17AAA
:103AC000A6EE864AE7EE277AE4EE064AA4EE865A88
:103AD000F0EE456AB0EE475AA6EEC65AF0EE456AD9
:103AE00036EEE26A27EE055AC5EE066A76EEE77A0A
:103AF00037EEC77A35EEC70A10EE103A03EBC05323
:103B0000B3F5000FC0F2988000EE103A20EE080ADC
:103B100007E60022BEE69FED4C5A0020F0EE453A43
:103B2000F7EE006ACFE65B4A974244DD002C7FF750
:103B300069AE9FED590A20EE000AF2E59FED576A43
:103B400076EEC76A37EE866AB4EEE66AF1EE10FAF0
:103B500012DDDFED517A28EE270A20EE270AE0E594
:103B60004F4A934261DC7FF472AF76EEC76AF4EE9F
:103B7000E76AF1EE10FA58DADB154FF400027E3BEB
:103B800042FA03F30B44C3F3C752464C7F3A144145
:103B9000C3F3160023EA040306EE903AC2F11702BB
:103BA00040F4000037EE667A10410029B8BF404269
:103BB00077EE876A50E7F7EE007A30EE670ADFEDBE
:103BC000266ADFED397A9FED395A9FED396AF1EEB9
:103BD000405AB5EE007AE5EE876AB6EE007AA6EEB8
:103BE000C07A60EE006A27EE267A67EEC77AE0EECA
:103BF000057AF0EE676AE0EE066A16EE902A22F485
:103C00007F6222F00F0207EE102AA5EE867A06EEFA
:103C1000902A77EEC77AEDE69FED265ADFED263A39
:103C20004FF40010F7EE086A4DE6DFED247A28EE37
:103C3000270A20EE270A74E500F0C0F866E700BF07
:103C400071C41C00D6B35D000000000042F1533E79
:103C500055326C3E05A38B3EABAAAA3EB76DDB3E48
:103C60009A99193F4F38763FA0C39D3600F0FFFF69
:103C70000038763F8CBEBF351872313F0072313F3D
:103C80000EEADDB54CBB313355B38A38610B36BB18
:103C9000ABAA2A3E0700803FCAF249713CAA3833DA
:103CA00000001643FFFF7F003BAAB83F70A5EC362B
:103CB00000AAB83F00C0153FDCCFD1356042A20D4D
:103CC000B1EEC00A704700BF0020704710EE103AF6
:103CD00023F0004300EE103A704700BF10EE103A98
:103CE00023F00040B0F1FF4FACBF0020012070472F
:103CF0009FED010A704700BF0000C07F10EE102A40
:103D000022F00041CB0D7F3B162B27DC61B310B4B2
:103D1000002B83B010EE100A4FEAD27125DB254A42
:103D20001A41104241D05208104207D04FF40014FB
:103D300020EA020244FA03F342EA03001E4B03EBBB
:103D4000810191ED007A07EE900A77EE277ACDEDAA
:103D5000017A9DED010A30EE470A26E0B1F1FF4FEE
:103D600002D330EE000A70477047C2F316035B427D
:103D700011485B0A120D03F4800312051A4300EB8D
:103D80008100D0ED006A07EE902A36EEA77A8DED1D
:103D9000017ADDED017A77EEE67A17EE903A23F0BC
:103DA000004343EAC17300EE103A03B05DF8044BE0
:103DB000704700BFFFFF7F004462000808B510EEA7
:103DC000103A33F000422DED028B11D0B2F1FF4FCB
:103DD00011D2B2F5000F13D3D20D0244FE2A1CDC1F
:103DE000002A2ADD23F0FF4343EAC25300EE103AD3
:103DF000BDEC028B08BDBDEC028B30EE000A08BDA5
:103E00001D4BDFED1E7A984220EE270A10DB10EEE4
:103E1000103AC3F3C752193ADFE79FED198AF0EE63
:103E2000400AB0EE480A00F031F820EE080ADFE759
:103E3000DFED140A20EE200ADAE712F1160F0EDA8F
:103E40004CF250339842E8DC9FED0E8AF0EE400AC7
:103E5000B0EE480A00F01AF820EE080AC8E7193256
:103E600023F0FF4343EAC253DFED077A00EE103A36
:103E700020EE270ABCE700BFB03CFFFF0000004C6B
:103E8000CAF249716042A20D0000003310EE103AF0
:103E900010EE902A23F0004302F00042134300EE9C
:103EA000103A7047014B1868704700BFA00000200F
:103EB0008A892DE9F041054610070C4658D44B6815
:103EC000002B05DC0B6C002B02DC0020BDE8F08130
:103ED000E66A002EF9D0002312F480522F68216A7E
:103EE0002B6032D0606DA3895A0705D56368C01A6C
:103EF000636B0BB1236CC01A00230246E66A216A89
:103F00002846B047431CA38906D129681D2948D8F3
:103F1000294ACA40D60744D500226260D9042269E2
:103F2000226004D5421C01D12B6803B96065616B26
:103F30002F600029C9D004F14403994202D02846D9
:103F400000F08AF900206063C0E701232846B047EB
:103F5000411CC8D12B68002BC5D01D2B01D0162BBE
:103F600001D12F60B1E7A38943F04003A381ADE7FE
:103F70000F69002FA9D093070E6808BF4B690F6027
:103F800018BF0023A6EB07088B60B8F1000F9CDD7B
:103F900043463A46216AA66A2846B047002806DC0E
:103FA000A38943F04003A3814FF0FF308EE707441D
:103FB000A8EB0008E9E700BF0100402038B50B6915
:103FC00005460C46DBB118B183690BB900F072F8F5
:103FD0000C4B9C4209D16C68B4F90C307BB1214682
:103FE0002846BDE83840FFF763BF074B9C4201D12C
:103FF000AC68F1E7054B9C4208BFEC68ECE7002099
:1040000038BD00BF6C6200088C6200084C6200087A
:10401000014620B9044B0549186800F0D3B8044B99
:104020001868FFF7CBBF00BFAC620008BD3F0008B7
:10403000A0000020002310B50446C0E900338360CF
:1040400081814366C281C0E9043383611946082235
:104050005C3000F0F9F8054B6362054BA362054B39
:10406000E362054B2462236310BD00BF19450008BD
:104070003B4500087345000897450008014900F0DA
:10408000A1B800BFBD3F000870B54A1E6825554362
:104090000E4605F1740100F02DF9044640B10021EF
:1040A000C0E900160C30A06005F1680200F0CCF801
:1040B000204670BD836910B5044633BBC0E9123396
:1040C0000365124B124A1B688262984204BF0123A7
:1040D000836100F01FF86060204600F01BF8A060CC
:1040E000204600F017F80022E06004216068FFF726
:1040F000A1FF01220921A068FFF79CFF02221221E3
:10410000E068FFF797FF0123A36110BDAC620008D0
:104110007D400008F8B51B4B1E68B369074613B90C
:104120003046FFF7C7FF4836D6E90134013B03D5D7
:10413000336833B13668F7E7B4F90C506DB16834C1
:10414000F4E704213846FFF79FFF30600028F1D1E3
:104150000C233B6004462046F8BD0B4B6566C4E962
:104160000055A560C4E90335C4E905550822294670
:1041700004F15C0000F068F8C4E90D55C4E912557B
:10418000E9E700BFAC6200080100FFFF2DE9F04144
:10419000884600F14804002614B93046BDE8F08195
:1041A000D4E90175013F01D52468F5E7AB89012BFE
:1041B00006D9B5F90E30013302D02846C047064370
:1041C0006835EFE72DE9F8438046894600F1480459
:1041D000002614B93046BDE8F883D4E90175013FE3
:1041E00001D52468F5E7AB89012B07D9B5F90E3065
:1041F000013303D029464046C84706436835EEE7F9
:1042000070B50D4E0D4CA41BA4100025A54209D17C
:104210000B4E0C4C01F046FCA41BA4100025A5423B
:1042200005D170BD56F8253098470135EEE756F8B0
:10423000253098470135F2E714640008146400083B
:10424000146400081864000802440346934200D135
:10425000704703F8011BF9E738B50546002945D03A
:1042600051F8043C0C1F002BB8BFE41800F0F0FA22
:104270001F4A1368104633B9636014602846BDE8CE
:10428000384000F0E6BAA3420CD921686218934284
:1042900004BF1A685B68636004BF52182260046040
:1042A000ECE713465A680AB1A242FAD919685818BD
:1042B000A0420BD120680144581882421960DDD118
:1042C000106852685A6001441960D7E702D90C237C
:1042D0002B60D3E7206821188A4204BF1168526816
:1042E000626004BF091821605C60C7E738BD00BF89
:1042F0009402002070B5CD1C25F0030508350C2D67
:1043000038BF0C25002D064601DBA94203D90C233A
:104310003360002070BD00F09BFA214A14682146EA
:1043200091B9204C23681BB9304600F0CDF82060CD
:104330002946304600F0C8F8431C24D10C233360D2
:10434000304600F086FAE4E70B685B1B18D40B2BB1
:104350000FD90B60CD50CC18304600F07AFA04F13A
:104360000B00231D20F00700C31AD3D05A42E2509D
:10437000D0E78C424B6816BF636013600C46EBE7D6
:104380000C464968CCE7C41C24F00304A04205D0C5
:10439000211A304600F098F80130CFD02560DBE7D5
:1043A00094020020980200200FB40A4B13B51C6839
:1043B00024B1A36913B92046FFF77CFE05AB049A2C
:1043C000A1680193204600F06FFA02B0BDE81040EA
:1043D00004B07047A000002038B5084B1C680546A3
:1043E00024B1A36913B92046FFF764FEA2682946E9
:1043F0002046BDE8384000F0C5BF00BFA000002047
:1044000070B50E46054618B183690BB9FFF752FE29
:10441000AB69AC6813B92846FFF74CFE234B9C42AE
:1044200017D16C68A3891B071DD52369DBB1013E39
:10443000A36816F8011F013BA360E9B9002B2EDA2F
:1044400022460A21284600F0ABF8013011D00A209C
:1044500011E0174B9C4201D1AC68E3E7154B9C423D
:1044600008BFEC68DEE72146284600F0FDF800288A
:10447000DDD04FF0FF3070BD002B04DAA2699A4204
:1044800006DC0A2904D023685A1C22601970CFE781
:104490002246284600F084F80130C9D1E9E72368B4
:1044A0000A205A1C22601870E5E700BF6C62000801
:1044B0008C6200084C620008024B01461868FFF746
:1044C0009FBF00BFA000002038B5064C0023054662
:1044D0000846236001F0D8FA431C02D1236803B1D7
:1044E0002B6038BD9C0300200FB40A4B13B51C6829
:1044F00024B1A36913B92046FFF7DCFD05AB049A8C
:1045000061680193204600F0BDFD02B0BDE8104097
:1045100004B07047A000002010B50C46B1F90E1091
:1045200000F066FF0028ABBF636DA3891B1823F45E
:104530008053ACBF6365A38110BD2DE9F0411F46D8
:104540008B89DB0505460C46164605D5022300225D
:10455000B1F90E1000F006F9A389B4F90E1023F496
:104560008053A38132463B462846BDE8F04100F027
:1045700069B810B50C46B1F90E1000F0F3F8431C01
:10458000A38915BF606523F4805343F48053A3814E
:1045900018BFA38110BDB1F90E1000F0D3B8000010
:1045A000F8B50E461446054618B183690BB9FFF7F6
:1045B00081FD214B9C422AD16C68A369A360A38929
:1045C0001A072ED5236963B323692068C01A63696B
:1045D000F6B28342374604DC21462846FFF7EEFC5C
:1045E00028BBA368013BA36023685A1C22601E708D
:1045F00063690130834204D0A389DB0719D50A2EF1
:1046000017D121462846FFF7D9FC90B10FE00B4B9C
:104610009C4201D1AC68D0E7094B9C4208BFEC68D2
:10462000CBE72146284600F01FF80028CCD04FF0F9
:10463000FF373846F8BD00BF6C6200088C62000886
:104640004C62000838B5074C054608461146002262
:1046500022601A46FEF768FD431C02D1236803B1AD
:104660002B6038BD9C030020324B70B51D68064698
:104670000C4625B1AB6913B92846FFF71BFD2E4B3D
:104680009C420FD16C68B4F90C309AB215072CD447
:10469000D00611D40922326043F04003A3814FF0C9
:1046A000FF303EE0254B9C4201D1AC68EBE7244B48
:1046B0009C4208BFEC68E6E7510712D5616B41B137
:1046C00004F14403994202D03046FFF7C5FD0023B0
:1046D0006363A38923F02403A38100236360236918
:1046E0002360A38943F00803A38123694BB9A389FD
:1046F00003F42073B3F5007F03D02146304600F069
:1047000067F8A28912F001030CD00023A36063694B
:104710005B42A361236953B9B4F90C3013F08000F4
:10472000BAD170BD920758BF6369A360F2E7002059
:10473000F7E700BFA00000206C6200088C62000850
:104740004C62000838B5064C002305460846236035
:1047500001F07AF9431C02D1236803B12B6038BD04
:104760009C03002038B5074C054608461146002238
:1047700022601A4601F080F9431C02D1236803B17C
:104780002B6038BD9C03002070B50E46B1F90E10A9
:10479000002996B014461D4607DA00232B60B38922
:1047A0001A0610D44FF480630EE06A4601F0C0F898
:1047B0000028F2DB019A02F47042A2F500535A423B
:1047C0005A412A60EEE740230020236016B070BDF6
:1047D0008B8973B59D0706460C4607D504F1470340
:1047E000236023610123636102B070BD01AB6A469F
:1047F000FFF7CAFF009905463046FFF77BFD48B931
:10480000B4F90C309A05EFD423F0030343F002030C
:10481000A381E3E70D4BB362A389206043F08003DB
:10482000A381009B6361019B20615BB1B4F90E1011
:10483000304601F08FF828B1A38923F0030343F039
:104840000103A381A3891D43A581CDE77D40000815
:10485000704770479368013B002B10B4936008DAEF
:104860009469A34201DB0A2903D15DF8044BFFF7E9
:1048700097BE1368581C1060197008465DF8044B09
:104880007047F8B506460F461446D518AC4201D11C
:10489000002007E03A4614F8011B3046FFF7DAFF24
:1048A000431CF3D1F8BD00002DE9F04F0C469DB03C
:1048B00017461D46064618B183690BB9FFF7FAFB88
:1048C0007C4B9C4258D17468A38918075ED5236934
:1048D000002B5BD00023099320238DF8293030234F
:1048E0008DF82A3003954FF0010BB846454615F870
:1048F000013B0BB1252B54D1B8EB070A0BD0534623
:104900003A4621463046FFF7BCFF013000F0C28036
:10491000099B5344099398F80030002B00F0BA80AB
:1049200000234FF0FF32CDE90523049307938DF860
:1049300053301A93A846052218F8011B5E48FBF76E
:10494000FFFF049B78BBD90644BF20228DF853207B
:104950001A0744BF2B228DF853202A782A2A2AD0FE
:10496000079AA84600200A25414611F8013B303B32
:10497000092B69D960B324E0504B9C4201D1B46843
:10498000A2E74F4B9C4208BFF4689DE721463046A2
:10499000FFF76AFE00289DD04FF0FF301DB0BDE844
:1049A000F08FA846A2E7444A801A0BFA00F0184399
:1049B00004904546BEE7039A111D12680391002A30
:1049C00001DB079204E0524243F002030792049392
:1049D00098F800302E2B0ED198F801302A2B38D1C0
:1049E000039B1A1D1B680392002BB8BF4FF0FF33C7
:1049F00008F102080593334D98F800100322284669
:104A0000FBF79EFF40B14023401B03FA00F0049BDC
:104A1000034308F10108049398F800102A488DF820
:104A20002810062208F10107FBF78AFF002837D07B
:104A3000264B1BBB039B073323F007030833039369
:104A4000099B4B44099350E705FB0232012088463D
:104A50008AE7002308F10108059319460A25404614
:104A600010F8012B303A092A03D9002BC3D0059145
:104A7000C1E705FB012101238046F0E703AB00936A
:104A80002246134B04A93046AFF30080B0F1FF3F3C
:104A90008146D5D1A3895B063FF57EAF09987DE7B6
:104AA00003AB009322460A4B04A9304600F088F875
:104AB000ECE700BF6C620008B06200088C6200087E
:104AC0004C620008B6620008BA62000800000000EC
:104AD000834800082DE9F04791461F468A680B6914
:104AE000DDF820809342B8BF1346C9F8003091F832
:104AF000432006460C4612B10133C9F80030236842
:104B0000990642BFD9F800300233C9F80030256851
:104B100015F0060507D104F1190AE368D9F8002059
:104B20009B1AAB4228DC94F843302268003318BF4C
:104B3000012392062DD404F1430239463046C04782
:104B4000013020D02368E568D9F8002003F006037F
:104B5000042B08BFAD1AA36822690CBF25EAE575CE
:104B600000259342C4BF9B1AED184FF000091A3478
:104B70004D451AD1002008E00123524639463046FF
:104B8000C047013003D14FF0FF30BDE8F087013559
:104B9000C3E7E1185A1C302081F84300224494F8FE
:104BA000451082F843100233C5E7012322463946F7
:104BB0003046C0470130E6D009F10109D8E70000CE
:104BC0002DE9F04301F1430C0C46097E85B06E29B6
:104BD0001746064698460C9A00F0B38022D86329FF
:104BE00036D00AD8002900F0B980582900F0838017
:104BF00004F1420584F8421032E0642901D06929A9
:104C0000F6D120681368050603F104012AD51B6854
:104C10001160002B03DA2D225B4284F843206F4899
:104C20000A2239E0732900F09D8008D86F2920D02E
:104C30007029DDD1236843F02003236003E0752948
:104C400017D07829D4D1782384F84530644855E0CA
:104C50001368191D1B68116004F1420584F8423085
:104C600001238CE01B68116010F0400F18BF1BB2CD
:104C7000CFE713682568181D1060280601D51B684A
:104C800002E06806FBD51B8854486F2914BF0A222E
:104C90000822002184F843106568A560002DC0F249
:104CA0009580216821F004012160002B3DD1002D69
:104CB00040F08E806546082A0BD12368DB0708D5B3
:104CC000236962689A42DEBF302305F8013C05F192
:104CD000FF35ACEB05032361CDF800803B4603AA0A
:104CE00021463046FFF7F6FE01304DD14FF0FF3040
:104CF00005B0BDE8F083394884F845101368216891
:104D00001D1D1B6815600A060BD5CA0744BF41F07C
:104D1000200121601BB9226822F0200222601022AB
:104D2000B7E74D0648BF9BB2EFE76546B3FBF2F12C
:104D300002FB1133C35C05F8013D0B460029F5D198
:104D4000B9E7136825686169181D106028061B689B
:104D500001D5196002E06A06FBD5198000232361A2
:104D60006546B9E71368191D11601D686268002166
:104D70002846FBF7E5FD08B1401B606063682361CE
:104D8000002384F84330A7E723692A463946304692
:104D9000C0470130AAD023689B0713D4E068039B67
:104DA0009842B8BF1846A3E701234A463946304621
:104DB000C04701309AD00135E368039A9B1AAB4291
:104DC000F2DCEBE7002504F11909F5E7002BACD183
:104DD000037884F8423004F142056CE7C1620008B0
:104DE000D26200082DE9F04FADF5237D0C4600217D
:104DF000449145919F49A0910DF104089E49DFF827
:104E00007C92CDF8188106469246A19100930A271C
:104E10009AF80030002B00F02A81554600F0AEFDD4
:104E200015F801BB5844437813F008031CD063689D
:104E3000002B12DD00F0A2FD23681A78104442789E
:104E4000120701D4AA46E3E7459A01324592626807
:104E50000133013A62602360E9E7A19B21463046B5
:104E600098470028E6D0EDE7BBF1250F40F082809F
:104E7000439341939AF801302A2B03D11023419395
:104E80000AF10205AA4615F8011BA1F13002092A10
:104E900022D903227948FBF753FD38B1A0EB09036F
:104EA00001209840419B18434190AA469AF800304F
:104EB000672B0AF101052BD8652B80F09F80472BCB
:104EC00010D8452B80F09A80002B6CD0252B51D028
:104ED00003234793429727E0439B07FB0313303B91
:104EE0004393CFE75B2B6AD00CD8582BF0D1419A73
:104EF00042F400724192102242926E2B8CBF042326
:104F0000032310E0632B65D0642BE1D14297F4E7D3
:104F1000702B4BD026D86E2B62D04CD8692BD7D1B2
:104F200000234293032347936368002B68DD419B72
:104F3000590607D400F022FD23681A7810444278FD
:104F4000120764D4479B022B73DC6B46224641A9AF
:104F5000304600F0BFF8012800F0898002287FF475
:104F600071AF1DE0752BD1D0782BC0D0732BAFD192
:104F70000223D8E76368002B0CDD23681A785A45B2
:104F800075D1013362682360459B013A0133626049
:104F9000459357E7A19B2146304698470028ECD01F
:104FA0004498002859D14FF0FF305CE0419A42F01C
:104FB000200241929BE7082342930423B3E729464A
:104FC000404600F0BDFA419B43F040034193054643
:104FD0000123A8E7419B43F0400341930023A2E74C
:104FE0004198C3063FF52EAF009B459A191D0091CD
:104FF0001B68C0074CBF1A801A6023E7052392E79D
:10500000A19B214630469847002890D0C8E7459A92
:10501000013245926268013A002A626002DD013382
:10502000236087E7A19B214630469847002881D01E
:10503000B6E7042B06DC6B46224641A9304600F059
:10504000ADF888E70E4B002B3FF4FCAE6B462246D2
:1050500041A93046AFF300807DE7A38913F0400FEC
:1050600018BF4FF0FF300DF5237DBDE8F08F449859
:10507000F9E700BF4D58000829540008B66200083F
:10508000000000002DE9F0410C4616461F4605467B
:1050900018B183690BB9FFF70DF80B4B9C4208D18F
:1050A0006C683B46324621462846BDE8F041FFF792
:1050B00099BE064B9C4201D1AC68F2E7044B9C427E
:1050C00008BFEC68EDE700BF6C6200088C62000866
:1050D0004C6200082DE9F04115468A6880460C466E
:1050E00032B98A69002A14BF4FF0FF3201228A6068
:1050F0002268D1065FBF1A68111D19601768002663
:10510000A369DBB1012B07D12B6862691B78D35CE3
:10511000A3B9002E32D106E0022B07D0002E2DD1EC
:10512000A369012B2AD10120BDE8F08100F026FC03
:105130002B681B78184443781B07EFD42368DA06E2
:105140005EBF2B681B783B702A686B6802F1010216
:105150002A60A26803F1FF3302F1FF326B6006F1AF
:10516000010658BF0137A26042B1002BC8DCD4F859
:1051700080312946404698470028C1D0236813F063
:10518000100305D1E2680132E260A26902B13B700E
:1051900023691E4426610020C6E700002DE9F04F78
:1051A0009A46744B0C468346164693E8070087B030
:1051B00003ABA76883E807006F4BA1696F4A032917
:1051C00008BF1A467B1EB3F5AE7F84BF40F25D1365
:1051D000A3602368009243F4506388BF6FF4AE75F8
:1051E00004F11C0923608CBF7F1900274B464FF048
:1051F00000080193316803AB022253F828000978B4
:10520000FBF79EFB019B30B3B8F1010F5AD16268E6
:105210002AB92268082142F4007261602260226883
:1052200022F4A0622260A268511EA1609AB1326885
:10523000511C316012781A705D1C7368013B002BA1
:10524000736007DCD4F8803131465846984700280F
:1052500040F086802B4608F10108B8F1030FC8D151
:1052600062680AB90A22626062684549606901930E
:10527000891A00F065F9019B4FF000081D46A368EC
:105280002268002B3AD03168606991F800C010F8AC
:105290000C00002832D0BCF1300F21D110051FD5F1
:1052A00008F1010817B10133013FA3607368013BA6
:1052B000002B73601BDD336801333360A368013B4F
:1052C000A360DCE7B8F1020FADD1226802F4C0613F
:1052D000B1F5007FBFD11021616042F48072A1E777
:1052E00022F4106222600B782B700135DEE7D4F8CF
:1052F00080313146584698470028DFD02368D905C9
:105300000CD54D4508D915F8011CD4F87C3132462E
:10531000584698476F1E3D464D4529D0226812F0E9
:10532000100213D12A706368009E49465846B04760
:10533000DAF8003021681A1DCAF8002011F0200F99
:105340001B6810D01860E3680133E360A5EB090522
:10535000A844256945442561002007B0BDE8F08FC9
:105360004FF00008CAE7CA074CBF18801860EAE788
:105370000120F2E7D45A00089D560008B5570008EE
:10538000F362000870B50D461446064618B18369ED
:105390000BB9FEF78FFE134B9C4212D17468A368C1
:1053A000013B002BA36016DAA269934202DBEBB249
:1053B0000A2B10D1224629463046BDE87040FFF73F
:1053C000EFB8094B9C4201D1B468E8E7074B9C4217
:1053D00008BFF468E3E723685A1C22601D70E8B236
:1053E00070BD00BF6C6200088C6200084C6200084F
:1053F00038B5074C054608461146002222601A4679
:10540000FDF79EFE431C02D1236803B12B6038BD1B
:105410009C030020838903F00903092B01D1FEF7C7
:10542000F7BD002070470000F8B50C46054618B1DE
:1054300083690BB9FEF73EFE3C4B9C420AD16C6877
:10544000B4F90C200023636093B29E060CD54FF094
:10545000FF3067E0364B9C4201D1AC68F0E7354B3A
:105460009C4208BFEC68EBE7580749D4D90605D43D
:10547000092342F040022B60A281E8E71A070BD50E
:1054800021462846FEF79AFD0028E0D1A389A060B6
:1054900023F00803A381A061A38943F00403A3813F
:1054A00023691BB921462846FFF792F9B4F90C701D
:1054B000BEB2B3070FD00123A3811F4B1F49186849
:1054C00006F00906FEF762FE092EA78103D12146E8
:1054D0002846FEF7EDFC22692260666A6369216A4C
:1054E0002846B047002860601DDCB4F90C3017BFB7
:1054F000002243F0200343F040036260A381A6E74B
:10550000616B0029CCD004F14403994202D02846B3
:10551000FEF7A2FE236C636000206063002BBFD007
:10552000E36B2360F8BD0020FCE700BF6C6200085D
:105530008C6200084C620008AC6200081554000838
:1055400070B50B785E2B13BF4A1C8A1C4B78002168
:1055500008BF0121441E00F1FF0504F8011FAC4201
:10556000FBD113B9013A104670BD81F00104C45457
:10557000511C11F8015C2D2D01F1FF360A4606D0B1
:105580005D2DF0D00DB93246EDE72B46EFE70E78F2
:105590005D2EFAD0B342F8DC01339E42C454FBDCEA
:1055A0000231E6E72DE9F0478046894692461E46DD
:1055B0000F463D46089815F8014B00F0DBF92044F2
:1055C000437813F0080332D12D2C32D17C78BD1CE6
:1055D0000122002E5DD0102E09D1302C07D12B785E
:1055E00003F0DF03582B4FD16C7810260235002AC8
:1055F00014BF4FF000416FF000410027B1FBF6FCF3
:10560000384606FB1C1EA4F13003092B17D81C4694
:10561000A64223DD7B1C07D084451CD301D1A645BF
:1056200019DB00FB0640012715F8014BEBE72F467D
:10563000BFE72B2C04BFBD1C7C781A46C9E7A4F138
:105640004103192B01D8373CE2E7A4F16103192B80
:1056500004D8573CDCE74FF0FF37E5E77B1C08D167
:105660002223C8F800300846BAF1000F07D1BDE880
:10567000F08702B14042BAF1000FF8D00FB105F146
:10568000FF39CAF80090F2E73024002EAFD1082687
:10569000ADE7302CA3D00A26A9E7000037B5064CA9
:1056A000064D2468246A002C08BF2C460094FFF79E
:1056B00079FF03B030BD00BFA0000020040100202E
:1056C0002DE9F0478046894692461E460F463D46E4
:1056D000089815F8014B00F04DF92044437813F079
:1056E000080330D12D2C30D17C78BD1C0121002E37
:1056F0005CD0102E09D1302C07D12B7803F0DF03BA
:10570000582B4ED16C78102602354FF0FF32002313
:10571000B2FBF6F206FB02FC6FEA0C0C1846A4F191
:105720003007092F17D83C46A64223DD002B1EDB8D
:1057300082421CD301D1A44519DB00FB06400123A2
:1057400015F8014BEBE72F46C1E72B2C04BFBD1C1E
:105750007C781946CBE7A4F14107192F01D8373CD3
:10576000E2E7A4F16107192F04D8573CDCE74FF0BA
:10577000FF33E5E7002B09DA2223C8F800304FF0A9
:10578000FF30BAF1000F07D1BDE8F08701B1404208
:10579000BAF1000FF8D00BB105F1FF39CAF800904B
:1057A000F2E73024002EB0D10826AEE7302CA4D08A
:1057B0000A26AAE737B5064C064D2468246A002C51
:1057C00008BF2C460094FFF77BFF03B030BD00BF3D
:1057D000A0000020040100202DE9F0410C46496B97
:1057E00004F1440399421DD14FF48061FEF782FD1C
:1057F00018B94FF0FF30BDE8F0814FF48063A36328
:1058000094F84630606380F8FF3394F8453080F8B0
:10581000FE3394F8443080F8FD3300F2FD30206010
:105820000020E8E7A66B77003A4600F0D2F805467C
:105830000028DED000EB060801463246404600F064
:10584000BDF8C4F80080C4E90D57E9E74B1C70B5FA
:1058500006460D46144603D14FF0FF35284670BD6D
:1058600018B183690BB9FEF725FC2E4B9C422CD155
:105870007468B4F90C3023F02003A3819BB259075C
:1058800013D4DA06E8D51B070BD521463046FEF7C0
:1058900095FB0028E0D1A389A06023F00803A38131
:1058A000A061A38943F00403A381636B6268EDB236
:1058B000E3B1A36B934212DD23685A1E226003F802
:1058C000015C636801336360C8E7174B9C4201D1F8
:1058D000B468CEE7154B9C4208BFF468C9E721467F
:1058E0003046FFF779FF0028E6D0B5E72169236845
:1058F00051B1994208D213F8011CA94204D1013BCD
:10590000013223606260A9E7C4E90F3204F1440365
:1059100063630323A363234603F8465F23600123E5
:10592000D1E700BF6C6200088C6200084C6200087E
:1059300038B5074C0023054608461146236000F0A1
:105940008BF8431C02D1236803B12B6038BD00BF24
:105950009C03002038B5064C00230546084623600A
:1059600000F082F8431C02D1236803B12B6038BDDC
:105970009C030020D0F8EC0070470000044B054A5F
:105980001B681B6A002B08BF1346D3F8EC00704756
:10599000A00000200401002082B001B901A942B199
:1059A0004BB113780B601278101C18BF012002B0A5
:1059B00070471046FBE76FF00100F8E710B5431E93
:1059C0000A44914200D110BD11F8014B03F8014F78
:1059D000F7E7F8B5074614460E4621B91146BDE86B
:1059E000F840FEF787BC22B9FEF736FC254628466C
:1059F000F8BD00F021F8A0420FD221463846FEF74C
:105A000079FC05460028F2D031462246FFF7D6FF42
:105A100031463846FEF720FCE9E73546E7E749B16D
:105A2000FF2A85BF8A2303600A704FF0FF3098BFBA
:105A3000012070470846704751F8043C181F002B9E
:105A4000BCBF0B58C0187047024B58221A604FF069
:105A5000FF3070479C030020024B58221A604FF021
:105A6000FF3070479C030020024B58221A60002030
:105A7000704700BF9C030020024B58221A604FF071
:105A8000FF3070479C030020044A05491368002B2F
:105A900008BF0B4618441060184670479C0200204F
:105AA000A0030020F8B500BFF8BC08BC9E467047B4
:0C5AB000F8B500BFF8BC08BC9E4670476B
:105ABC0000000000000000000102030406070809B2
:105ACC000000000001020304F5620008F8620008FF
